{
  "contractName": "TaskEscrow",
  "abi": [
    {
      "anonymous": false,
      "inputs": [
        {
          "indexed": false,
          "internalType": "uint256",
          "name": "taskId",
          "type": "uint256"
        },
        {
          "indexed": false,
          "internalType": "address",
          "name": "freelancer",
          "type": "address"
        }
      ],
      "name": "TaskAccepted",
      "type": "event"
    },
    {
      "anonymous": false,
      "inputs": [
        {
          "indexed": false,
          "internalType": "uint256",
          "name": "taskId",
          "type": "uint256"
        }
      ],
      "name": "TaskApproved",
      "type": "event"
    },
    {
      "anonymous": false,
      "inputs": [
        {
          "indexed": false,
          "internalType": "uint256",
          "name": "taskId",
          "type": "uint256"
        }
      ],
      "name": "TaskCancelled",
      "type": "event"
    },
    {
      "anonymous": false,
      "inputs": [
        {
          "indexed": false,
          "internalType": "uint256",
          "name": "taskId",
          "type": "uint256"
        },
        {
          "indexed": false,
          "internalType": "address",
          "name": "freelancer",
          "type": "address"
        },
        {
          "indexed": false,
          "internalType": "uint256",
          "name": "amount",
          "type": "uint256"
        }
      ],
      "name": "TaskCompleted",
      "type": "event"
    },
    {
      "anonymous": false,
      "inputs": [
        {
          "indexed": false,
          "internalType": "uint256",
          "name": "taskId",
          "type": "uint256"
        },
        {
          "indexed": false,
          "internalType": "address",
          "name": "client",
          "type": "address"
        },
        {
          "indexed": false,
          "internalType": "string",
          "name": "description",
          "type": "string"
        },
        {
          "indexed": false,
          "internalType": "uint256",
          "name": "amount",
          "type": "uint256"
        },
        {
          "indexed": false,
          "internalType": "uint256",
          "name": "deadline",
          "type": "uint256"
        }
      ],
      "name": "TaskCreated",
      "type": "event"
    },
    {
      "anonymous": false,
      "inputs": [
        {
          "indexed": false,
          "internalType": "uint256",
          "name": "taskId",
          "type": "uint256"
        }
      ],
      "name": "TaskDisputed",
      "type": "event"
    },
    {
      "anonymous": false,
      "inputs": [
        {
          "indexed": false,
          "internalType": "uint256",
          "name": "taskId",
          "type": "uint256"
        },
        {
          "indexed": false,
          "internalType": "string",
          "name": "deliverableLink",
          "type": "string"
        }
      ],
      "name": "TaskSubmitted",
      "type": "event"
    },
    {
      "inputs": [
        {
          "internalType": "address",
          "name": "",
          "type": "address"
        },
        {
          "internalType": "uint256",
          "name": "",
          "type": "uint256"
        }
      ],
      "name": "clientTasks",
      "outputs": [
        {
          "internalType": "uint256",
          "name": "",
          "type": "uint256"
        }
      ],
      "stateMutability": "view",
      "type": "function",
      "constant": true
    },
    {
      "inputs": [
        {
          "internalType": "address",
          "name": "",
          "type": "address"
        },
        {
          "internalType": "uint256",
          "name": "",
          "type": "uint256"
        }
      ],
      "name": "freelancerTasks",
      "outputs": [
        {
          "internalType": "uint256",
          "name": "",
          "type": "uint256"
        }
      ],
      "stateMutability": "view",
      "type": "function",
      "constant": true
    },
    {
      "inputs": [
        {
          "internalType": "uint256",
          "name": "",
          "type": "uint256"
        }
      ],
      "name": "tasks",
      "outputs": [
        {
          "internalType": "uint256",
          "name": "id",
          "type": "uint256"
        },
        {
          "internalType": "address payable",
          "name": "client",
          "type": "address"
        },
        {
          "internalType": "address payable",
          "name": "freelancer",
          "type": "address"
        },
        {
          "internalType": "string",
          "name": "description",
          "type": "string"
        },
        {
          "internalType": "uint256",
          "name": "amount",
          "type": "uint256"
        },
        {
          "internalType": "uint256",
          "name": "deadline",
          "type": "uint256"
        },
        {
          "internalType": "enum TaskStatus",
          "name": "status",
          "type": "uint8"
        },
        {
          "internalType": "string",
          "name": "deliverableLink",
          "type": "string"
        },
        {
          "internalType": "uint256",
          "name": "createdAt",
          "type": "uint256"
        }
      ],
      "stateMutability": "view",
      "type": "function",
      "constant": true
    },
    {
      "inputs": [
        {
          "internalType": "string",
          "name": "_description",
          "type": "string"
        },
        {
          "internalType": "uint256",
          "name": "_deadline",
          "type": "uint256"
        }
      ],
      "name": "createTask",
      "outputs": [
        {
          "internalType": "uint256",
          "name": "",
          "type": "uint256"
        }
      ],
      "stateMutability": "payable",
      "type": "function",
      "payable": true
    },
    {
      "inputs": [
        {
          "internalType": "uint256",
          "name": "_taskId",
          "type": "uint256"
        }
      ],
      "name": "acceptTask",
      "outputs": [],
      "stateMutability": "nonpayable",
      "type": "function"
    },
    {
      "inputs": [
        {
          "internalType": "uint256",
          "name": "_taskId",
          "type": "uint256"
        },
        {
          "internalType": "string",
          "name": "_deliverableLink",
          "type": "string"
        }
      ],
      "name": "submitTask",
      "outputs": [],
      "stateMutability": "nonpayable",
      "type": "function"
    },
    {
      "inputs": [
        {
          "internalType": "uint256",
          "name": "_taskId",
          "type": "uint256"
        }
      ],
      "name": "approveTask",
      "outputs": [],
      "stateMutability": "nonpayable",
      "type": "function"
    },
    {
      "inputs": [
        {
          "internalType": "uint256",
          "name": "_taskId",
          "type": "uint256"
        }
      ],
      "name": "disputeTask",
      "outputs": [],
      "stateMutability": "nonpayable",
      "type": "function"
    },
    {
      "inputs": [
        {
          "internalType": "uint256",
          "name": "_taskId",
          "type": "uint256"
        }
      ],
      "name": "cancelTask",
      "outputs": [],
      "stateMutability": "nonpayable",
      "type": "function"
    },
    {
      "inputs": [
        {
          "internalType": "uint256",
          "name": "_taskId",
          "type": "uint256"
        }
      ],
      "name": "getTask",
      "outputs": [
        {
          "components": [
            {
              "internalType": "uint256",
              "name": "id",
              "type": "uint256"
            },
            {
              "internalType": "address payable",
              "name": "client",
              "type": "address"
            },
            {
              "internalType": "address payable",
              "name": "freelancer",
              "type": "address"
            },
            {
              "internalType": "string",
              "name": "description",
              "type": "string"
            },
            {
              "internalType": "uint256",
              "name": "amount",
              "type": "uint256"
            },
            {
              "internalType": "uint256",
              "name": "deadline",
              "type": "uint256"
            },
            {
              "internalType": "enum TaskStatus",
              "name": "status",
              "type": "uint8"
            },
            {
              "internalType": "string",
              "name": "deliverableLink",
              "type": "string"
            },
            {
              "internalType": "uint256",
              "name": "createdAt",
              "type": "uint256"
            }
          ],
          "internalType": "struct Task",
          "name": "",
          "type": "tuple"
        }
      ],
      "stateMutability": "view",
      "type": "function",
      "constant": true
    },
    {
      "inputs": [],
      "name": "getClientTasks",
      "outputs": [
        {
          "internalType": "uint256[]",
          "name": "",
          "type": "uint256[]"
        }
      ],
      "stateMutability": "view",
      "type": "function",
      "constant": true
    },
    {
      "inputs": [],
      "name": "getFreelancerTasks",
      "outputs": [
        {
          "internalType": "uint256[]",
          "name": "",
          "type": "uint256[]"
        }
      ],
      "stateMutability": "view",
      "type": "function",
      "constant": true
    },
    {
      "inputs": [],
      "name": "getTaskCount",
      "outputs": [
        {
          "internalType": "uint256",
          "name": "",
          "type": "uint256"
        }
      ],
      "stateMutability": "view",
      "type": "function",
      "constant": true
    }
  ],
  "bytecode": "0x608060405234801561001057600080fd5b50612c19806100206000396000f3fe6080604052600436106100df576000357c010000000000000000000000000000000000000000000000000000000090048063776bae681161009c57806397d9c23e1161007657806397d9c23e14610290578063ba1c30cf146102b9578063c17a340e146102f6578063f76a225614610321576100df565b8063776bae68146101f95780637eec20a8146102225780638d9776721461024b576100df565b806304fe2b34146100e45780630a07fae6146101145780631bf6912d1461013d5780631d65e77e146101665780632545131e146101a357806341c8237e146101ce575b600080fd5b6100fe60048036038101906100f99190611aff565b61035e565b60405161010b9190611b6a565b60405180910390f35b34801561012057600080fd5b5061013b60048036038101906101369190611b85565b610665565b005b34801561014957600080fd5b50610164600480360381019061015f9190611b85565b6109ad565b005b34801561017257600080fd5b5061018d60048036038101906101889190611b85565b610c27565b60405161019a9190611dc4565b60405180910390f35b3480156101af57600080fd5b506101b8610ece565b6040516101c59190611e95565b60405180910390f35b3480156101da57600080fd5b506101e3610f63565b6040516101f09190611e95565b60405180910390f35b34801561020557600080fd5b50610220600480360381019061021b9190611eb7565b610ff8565b005b34801561022e57600080fd5b5061024960048036038101906102449190611b85565b611234565b005b34801561025757600080fd5b50610272600480360381019061026d9190611b85565b6114ec565b60405161028799989796959493929190611f7b565b60405180910390f35b34801561029c57600080fd5b506102b760048036038101906102b29190611b85565b611697565b005b3480156102c557600080fd5b506102e060048036038101906102db9190612054565b61187a565b6040516102ed9190611b6a565b60405180910390f35b34801561030257600080fd5b5061030b6118ab565b6040516103189190611b6a565b60405180910390f35b34801561032d57600080fd5b5061034860048036038101906103439190612054565b6118b4565b6040516103559190611b6a565b60405180910390f35b60008034116103a2576040517f08c379a000000000000000000000000000000000000000000000000000000000815260040161039990612106565b60405180910390fd5b4282116103e4576040517f08c379a00000000000000000000000000000000000000000000000000000000081526004016103db90612172565b60405180910390fd5b60008060008154809291906103f8906121c1565b9190505590506040518061012001604052808281526020013373ffffffffffffffffffffffffffffffffffffffff168152602001600073ffffffffffffffffffffffffffffffffffffffff1681526020018581526020013481526020018481526020016000600681111561046f5761046e611c81565b5b815260200160405180602001604052806000815250815260200142815250600160008381526020019081526020016000206000820151816000015560208201518160010160006101000a81548173ffffffffffffffffffffffffffffffffffffffff021916908373ffffffffffffffffffffffffffffffffffffffff16021790555060408201518160020160006101000a81548173ffffffffffffffffffffffffffffffffffffffff021916908373ffffffffffffffffffffffffffffffffffffffff160217905550606082015181600301908161054d919061241b565b506080820151816004015560a0820151816005015560c08201518160060160006101000a81548160ff0219169083600681111561058d5761058c611c81565b5b021790555060e08201518160070190816105a7919061241b565b506101008201518160080155905050600260003373ffffffffffffffffffffffffffffffffffffffff1673ffffffffffffffffffffffffffffffffffffffff1681526020019081526020016000208190806001815401808255809150506001900390600052602060002001600090919091909150557fdac01f3886a95e591b6ebef63858e5383c5f85b170876b4e18f380599b0a68a581338634876040516106539594939291906124fc565b60405180910390a18091505092915050565b8060005481106106aa576040517f08c379a00000000000000000000000000000000000000000000000000000000081526004016106a1906125a2565b60405180910390fd5b813373ffffffffffffffffffffffffffffffffffffffff166001600083815260200190815260200160002060010160009054906101000a900473ffffffffffffffffffffffffffffffffffffffff1673ffffffffffffffffffffffffffffffffffffffff161461074f576040517f08c379a000000000000000000000000000000000000000000000000000000000815260040161074690612634565b60405180910390fd5b60006001600085815260200190815260200160002090506002600681111561077a57610779611c81565b5b8160060160009054906101000a900460ff16600681111561079e5761079d611c81565b5b146107de576040517f08c379a00000000000000000000000000000000000000000000000000000000081526004016107d5906126a0565b60405180910390fd5b60038160060160006101000a81548160ff0219169083600681111561080657610805611c81565b5b021790555060008160020160009054906101000a900473ffffffffffffffffffffffffffffffffffffffff1673ffffffffffffffffffffffffffffffffffffffff168260040154604051610859906126f1565b60006040518083038185875af1925050503d8060008114610896576040519150601f19603f3d011682016040523d82523d6000602084013e61089b565b606091505b50509050806108df576040517f08c379a00000000000000000000000000000000000000000000000000000000081526004016108d690612752565b60405180910390fd5b60058260060160006101000a81548160ff0219169083600681111561090757610906611c81565b5b02179055507f3e9d27a1c2a828db29e4b2a17fbd1bc70201ef21aec4f74b9fa051b02e38e3f08560405161093b9190611b6a565b60405180910390a17f843af93d40addceac6932508439844b897d4df9e971db326d557e3cdaa9f3ebf858360020160009054906101000a900473ffffffffffffffffffffffffffffffffffffffff16846004015460405161099e939291906127c7565b60405180910390a15050505050565b8060005481106109f2576040517f08c379a00000000000000000000000000000000000000000000000000000000081526004016109e9906125a2565b60405180910390fd5b600060016000848152602001908152602001600020905060006006811115610a1d57610a1c611c81565b5b8160060160009054906101000a900460ff166006811115610a4157610a40611c81565b5b14610a81576040517f08c379a0000000000000000000000000000000000000000000000000000000008152600401610a7890612870565b60405180910390fd5b3373ffffffffffffffffffffffffffffffffffffffff168160010160009054906101000a900473ffffffffffffffffffffffffffffffffffffffff1673ffffffffffffffffffffffffffffffffffffffff1603610b13576040517f08c379a0000000000000000000000000000000000000000000000000000000008152600401610b0a90612902565b60405180910390fd5b338160020160006101000a81548173ffffffffffffffffffffffffffffffffffffffff021916908373ffffffffffffffffffffffffffffffffffffffff16021790555060018160060160006101000a81548160ff02191690836006811115610b7e57610b7d611c81565b5b0217905550600360003373ffffffffffffffffffffffffffffffffffffffff1673ffffffffffffffffffffffffffffffffffffffff1681526020019081526020016000208390806001815401808255809150506001900390600052602060002001600090919091909150557fc8717b61398fb9d7cacf49fe1e296b2f10e9711226b532842b6ffd642cb6a2c68333604051610c1a929190612922565b60405180910390a1505050565b610c2f6118e5565b816000548110610c74576040517f08c379a0000000000000000000000000000000000000000000000000000000008152600401610c6b906125a2565b60405180910390fd5b6001600084815260200190815260200160002060405180610120016040529081600082015481526020016001820160009054906101000a900473ffffffffffffffffffffffffffffffffffffffff1673ffffffffffffffffffffffffffffffffffffffff1673ffffffffffffffffffffffffffffffffffffffff1681526020016002820160009054906101000a900473ffffffffffffffffffffffffffffffffffffffff1673ffffffffffffffffffffffffffffffffffffffff1673ffffffffffffffffffffffffffffffffffffffff168152602001600382018054610d5990612238565b80601f0160208091040260200160405190810160405280929190818152602001828054610d8590612238565b8015610dd25780601f10610da757610100808354040283529160200191610dd2565b820191906000526020600020905b815481529060010190602001808311610db557829003601f168201915b5050505050815260200160048201548152602001600582015481526020016006820160009054906101000a900460ff166006811115610e1457610e13611c81565b5b6006811115610e2657610e25611c81565b5b8152602001600782018054610e3a90612238565b80601f0160208091040260200160405190810160405280929190818152602001828054610e6690612238565b8015610eb35780601f10610e8857610100808354040283529160200191610eb3565b820191906000526020600020905b815481529060010190602001808311610e9657829003601f168201915b50505050508152602001600882015481525050915050919050565b6060600260003373ffffffffffffffffffffffffffffffffffffffff1673ffffffffffffffffffffffffffffffffffffffff168152602001908152602001600020805480602002602001604051908101604052809291908181526020018280548015610f5957602002820191906000526020600020905b815481526020019060010190808311610f45575b5050505050905090565b6060600360003373ffffffffffffffffffffffffffffffffffffffff1673ffffffffffffffffffffffffffffffffffffffff168152602001908152602001600020805480602002602001604051908101604052809291908181526020018280548015610fee57602002820191906000526020600020905b815481526020019060010190808311610fda575b5050505050905090565b81600054811061103d576040517f08c379a0000000000000000000000000000000000000000000000000000000008152600401611034906125a2565b60405180910390fd5b823373ffffffffffffffffffffffffffffffffffffffff166001600083815260200190815260200160002060020160009054906101000a900473ffffffffffffffffffffffffffffffffffffffff1673ffffffffffffffffffffffffffffffffffffffff16146110e2576040517f08c379a00000000000000000000000000000000000000000000000000000000081526004016110d9906129bd565b60405180910390fd5b60006001600086815260200190815260200160002090506001600681111561110d5761110c611c81565b5b8160060160009054906101000a900460ff16600681111561113157611130611c81565b5b14611171576040517f08c379a000000000000000000000000000000000000000000000000000000000815260040161116890612a29565b60405180910390fd5b60008451116111b5576040517f08c379a00000000000000000000000000000000000000000000000000000000081526004016111ac90612a95565b60405180910390fd5b838160070190816111c6919061241b565b5060028160060160006101000a81548160ff021916908360068111156111ef576111ee611c81565b5b02179055507f6446ced08d52e8f0331d94dbe32ad91d577ec02d6d8ec44376b1517fcca598a78585604051611225929190612ab5565b60405180910390a15050505050565b806000548110611279576040517f08c379a0000000000000000000000000000000000000000000000000000000008152600401611270906125a2565b60405180910390fd5b813373ffffffffffffffffffffffffffffffffffffffff166001600083815260200190815260200160002060010160009054906101000a900473ffffffffffffffffffffffffffffffffffffffff1673ffffffffffffffffffffffffffffffffffffffff161461131e576040517f08c379a000000000000000000000000000000000000000000000000000000000815260040161131590612634565b60405180910390fd5b60006001600085815260200190815260200160002090506000600681111561134957611348611c81565b5b8160060160009054906101000a900460ff16600681111561136d5761136c611c81565b5b146113ad576040517f08c379a00000000000000000000000000000000000000000000000000000000081526004016113a490612b57565b60405180910390fd5b60068160060160006101000a81548160ff021916908360068111156113d5576113d4611c81565b5b021790555060008160010160009054906101000a900473ffffffffffffffffffffffffffffffffffffffff1673ffffffffffffffffffffffffffffffffffffffff168260040154604051611428906126f1565b60006040518083038185875af1925050503d8060008114611465576040519150601f19603f3d011682016040523d82523d6000602084013e61146a565b606091505b50509050806114ae576040517f08c379a00000000000000000000000000000000000000000000000000000000081526004016114a590612bc3565b60405180910390fd5b7fc6eacc3aa5b2aa77b5a826b832a804ca0b71830ec74f9aa57a15edd978c31ed6856040516114dd9190611b6a565b60405180910390a15050505050565b60016020528060005260406000206000915090508060000154908060010160009054906101000a900473ffffffffffffffffffffffffffffffffffffffff16908060020160009054906101000a900473ffffffffffffffffffffffffffffffffffffffff169080600301805461156190612238565b80601f016020809104026020016040519081016040528092919081815260200182805461158d90612238565b80156115da5780601f106115af576101008083540402835291602001916115da565b820191906000526020600020905b8154815290600101906020018083116115bd57829003601f168201915b5050505050908060040154908060050154908060060160009054906101000a900460ff169080600701805461160e90612238565b80601f016020809104026020016040519081016040528092919081815260200182805461163a90612238565b80156116875780601f1061165c57610100808354040283529160200191611687565b820191906000526020600020905b81548152906001019060200180831161166a57829003601f168201915b5050505050908060080154905089565b8060005481106116dc576040517f08c379a00000000000000000000000000000000000000000000000000000000081526004016116d3906125a2565b60405180910390fd5b813373ffffffffffffffffffffffffffffffffffffffff166001600083815260200190815260200160002060010160009054906101000a900473ffffffffffffffffffffffffffffffffffffffff1673ffffffffffffffffffffffffffffffffffffffff1614611781576040517f08c379a000000000000000000000000000000000000000000000000000000000815260040161177890612634565b60405180910390fd5b6000600160008581526020019081526020016000209050600260068111156117ac576117ab611c81565b5b8160060160009054906101000a900460ff1660068111156117d0576117cf611c81565b5b14611810576040517f08c379a0000000000000000000000000000000000000000000000000000000008152600401611807906126a0565b60405180910390fd5b60048160060160006101000a81548160ff0219169083600681111561183857611837611c81565b5b02179055507fe374130ee21046a04f5d6be14c752d412f721aecf1e8a04109b0634279cac0a68460405161186c9190611b6a565b60405180910390a150505050565b6002602052816000526040600020818154811061189657600080fd5b90600052602060002001600091509150505481565b60008054905090565b600360205281600052604060002081815481106118d057600080fd5b90600052602060002001600091509150505481565b60405180610120016040528060008152602001600073ffffffffffffffffffffffffffffffffffffffff168152602001600073ffffffffffffffffffffffffffffffffffffffff1681526020016060815260200160008152602001600081526020016000600681111561195b5761195a611c81565b5b815260200160608152602001600081525090565b6000604051905090565b600080fd5b600080fd5b600080fd5b600080fd5b6000601f19601f8301169050919050565b7f4e487b7100000000000000000000000000000000000000000000000000000000600052604160045260246000fd5b6119d68261198d565b810181811067ffffffffffffffff821117156119f5576119f461199e565b5b80604052505050565b6000611a0861196f565b9050611a1482826119cd565b919050565b600067ffffffffffffffff821115611a3457611a3361199e565b5b611a3d8261198d565b9050602081019050919050565b82818337600083830152505050565b6000611a6c611a6784611a19565b6119fe565b905082815260208101848484011115611a8857611a87611988565b5b611a93848285611a4a565b509392505050565b600082601f830112611ab057611aaf611983565b5b8135611ac0848260208601611a59565b91505092915050565b6000819050919050565b611adc81611ac9565b8114611ae757600080fd5b50565b600081359050611af981611ad3565b92915050565b60008060408385031215611b1657611b15611979565b5b600083013567ffffffffffffffff811115611b3457611b3361197e565b5b611b4085828601611a9b565b9250506020611b5185828601611aea565b9150509250929050565b611b6481611ac9565b82525050565b6000602082019050611b7f6000830184611b5b565b92915050565b600060208284031215611b9b57611b9a611979565b5b6000611ba984828501611aea565b91505092915050565b611bbb81611ac9565b82525050565b600073ffffffffffffffffffffffffffffffffffffffff82169050919050565b6000611bec82611bc1565b9050919050565b611bfc81611be1565b82525050565b600081519050919050565b600082825260208201905092915050565b60005b83811015611c3c578082015181840152602081019050611c21565b60008484015250505050565b6000611c5382611c02565b611c5d8185611c0d565b9350611c6d818560208601611c1e565b611c768161198d565b840191505092915050565b7f4e487b7100000000000000000000000000000000000000000000000000000000600052602160045260246000fd5b60078110611cc157611cc0611c81565b5b50565b6000819050611cd282611cb0565b919050565b6000611ce282611cc4565b9050919050565b611cf281611cd7565b82525050565b600061012083016000830151611d116000860182611bb2565b506020830151611d246020860182611bf3565b506040830151611d376040860182611bf3565b5060608301518482036060860152611d4f8282611c48565b9150506080830151611d646080860182611bb2565b5060a0830151611d7760a0860182611bb2565b5060c0830151611d8a60c0860182611ce9565b5060e083015184820360e0860152611da28282611c48565b915050610100830151611db9610100860182611bb2565b508091505092915050565b60006020820190508181036000830152611dde8184611cf8565b905092915050565b600081519050919050565b600082825260208201905092915050565b6000819050602082019050919050565b6000611e1e8383611bb2565b60208301905092915050565b6000602082019050919050565b6000611e4282611de6565b611e4c8185611df1565b9350611e5783611e02565b8060005b83811015611e88578151611e6f8882611e12565b9750611e7a83611e2a565b925050600181019050611e5b565b5085935050505092915050565b60006020820190508181036000830152611eaf8184611e37565b905092915050565b60008060408385031215611ece57611ecd611979565b5b6000611edc85828601611aea565b925050602083013567ffffffffffffffff811115611efd57611efc61197e565b5b611f0985828601611a9b565b9150509250929050565b611f1c81611be1565b82525050565b600082825260208201905092915050565b6000611f3e82611c02565b611f488185611f22565b9350611f58818560208601611c1e565b611f618161198d565b840191505092915050565b611f7581611cd7565b82525050565b600061012082019050611f91600083018c611b5b565b611f9e602083018b611f13565b611fab604083018a611f13565b8181036060830152611fbd8189611f33565b9050611fcc6080830188611b5b565b611fd960a0830187611b5b565b611fe660c0830186611f6c565b81810360e0830152611ff88185611f33565b9050612008610100830184611b5b565b9a9950505050505050505050565b600061202182611bc1565b9050919050565b61203181612016565b811461203c57600080fd5b50565b60008135905061204e81612028565b92915050565b6000806040838503121561206b5761206a611979565b5b60006120798582860161203f565b925050602061208a85828601611aea565b9150509250929050565b7f5461736b207061796d656e74206d75737420626520677265617465722074686160008201527f6e20300000000000000000000000000000000000000000000000000000000000602082015250565b60006120f0602383611f22565b91506120fb82612094565b604082019050919050565b6000602082019050818103600083015261211f816120e3565b9050919050565b7f446561646c696e65206d75737420626520696e20746865206675747572650000600082015250565b600061215c601e83611f22565b915061216782612126565b602082019050919050565b6000602082019050818103600083015261218b8161214f565b9050919050565b7f4e487b7100000000000000000000000000000000000000000000000000000000600052601160045260246000fd5b60006121cc82611ac9565b91507fffffffffffffffffffffffffffffffffffffffffffffffffffffffffffffffff82036121fe576121fd612192565b5b600182019050919050565b7f4e487b7100000000000000000000000000000000000000000000000000000000600052602260045260246000fd5b6000600282049050600182168061225057607f821691505b60208210810361226357612262612209565b5b50919050565b60008190508160005260206000209050919050565b60006020601f8301049050919050565b60008160020a8302905092915050565b6000600883026122ce7fffffffffffffffffffffffffffffffffffffffffffffffffffffffffffffffff8261228e565b6122d8868361228e565b95508019841693508086168417925050509392505050565b6000819050919050565b600061231561231061230b84611ac9565b6122f0565b611ac9565b9050919050565b6000819050919050565b61232f836122fa565b61234361233b8261231c565b84845461229e565b825550505050565b600090565b61235861234b565b612363818484612326565b505050565b5b818110156123875761237c600082612350565b600181019050612369565b5050565b601f8211156123cc5761239d81612269565b6123a68461227e565b810160208510156123b5578190505b6123c96123c18561227e565b830182612368565b50505b505050565b60008160020a8304905092915050565b60006123f2600019846008026123d1565b1980831691505092915050565b600061240b83836123e1565b9150826002028217905092915050565b61242482611c02565b67ffffffffffffffff81111561243d5761243c61199e565b5b6124478254612238565b61245282828561238b565b600060209050601f8311600181146124855760008415612473578287015190505b61247d85826123ff565b8655506124e5565b601f19841661249386612269565b60005b828110156124bb57848901518255600182019150602085019450602081019050612496565b868310156124d857848901516124d4601f8916826123e1565b8355505b6001600288020188555050505b505050505050565b6124f681612016565b82525050565b600060a0820190506125116000830188611b5b565b61251e60208301876124ed565b81810360408301526125308186611f33565b905061253f6060830185611b5b565b61254c6080830184611b5b565b9695505050505050565b7f5461736b20646f6573206e6f7420657869737400000000000000000000000000600082015250565b600061258c601383611f22565b915061259782612556565b602082019050919050565b600060208201905081810360008301526125bb8161257f565b9050919050565b7f4f6e6c792074686520636c69656e742063616e2063616c6c207468697320667560008201527f6e6374696f6e0000000000000000000000000000000000000000000000000000602082015250565b600061261e602683611f22565b9150612629826125c2565b604082019050919050565b6000602082019050818103600083015261264d81612611565b9050919050565b7f5461736b206d75737420626520696e207375626d697474656420737461746500600082015250565b600061268a601f83611f22565b915061269582612654565b602082019050919050565b600060208201905081810360008301526126b98161267d565b9050919050565b600081905092915050565b50565b60006126db6000836126c0565b91506126e6826126cb565b600082019050919050565b60006126fc826126ce565b9150819050919050565b7f5061796d656e74207472616e73666572206661696c6564000000000000000000600082015250565b600061273c601783611f22565b915061274782612706565b602082019050919050565b6000602082019050818103600083015261276b8161272f565b9050919050565b600061278d61278861278384611bc1565b6122f0565b611bc1565b9050919050565b600061279f82612772565b9050919050565b60006127b182612794565b9050919050565b6127c1816127a6565b82525050565b60006060820190506127dc6000830186611b5b565b6127e960208301856127b8565b6127f66040830184611b5b565b949350505050565b7f5461736b206973206e6f7420617661696c61626c6520666f722061636365707460008201527f616e636500000000000000000000000000000000000000000000000000000000602082015250565b600061285a602483611f22565b9150612865826127fe565b604082019050919050565b600060208201905081810360008301526128898161284d565b9050919050565b7f436c69656e742063616e6e6f7420616363657074207468656972206f776e207460008201527f61736b0000000000000000000000000000000000000000000000000000000000602082015250565b60006128ec602383611f22565b91506128f782612890565b604082019050919050565b6000602082019050818103600083015261291b816128df565b9050919050565b60006040820190506129376000830185611b5b565b61294460208301846124ed565b9392505050565b7f4f6e6c792074686520667265656c616e6365722063616e2063616c6c2074686960008201527f732066756e6374696f6e00000000000000000000000000000000000000000000602082015250565b60006129a7602a83611f22565b91506129b28261294b565b604082019050919050565b600060208201905081810360008301526129d68161299a565b9050919050565b7f5461736b206d75737420626520696e2061636365707465642073746174650000600082015250565b6000612a13601e83611f22565b9150612a1e826129dd565b602082019050919050565b60006020820190508181036000830152612a4281612a06565b9050919050565b7f44656c6976657261626c65206c696e6b2063616e6e6f7420626520656d707479600082015250565b6000612a7f602083611f22565b9150612a8a82612a49565b602082019050919050565b60006020820190508181036000830152612aae81612a72565b9050919050565b6000604082019050612aca6000830185611b5b565b8181036020830152612adc8184611f33565b90509392505050565b7f4f6e6c7920756e6163636570746564207461736b732063616e2062652063616e60008201527f63656c6c65640000000000000000000000000000000000000000000000000000602082015250565b6000612b41602683611f22565b9150612b4c82612ae5565b604082019050919050565b60006020820190508181036000830152612b7081612b34565b9050919050565b7f526566756e64207472616e73666572206661696c656400000000000000000000600082015250565b6000612bad601683611f22565b9150612bb882612b77565b602082019050919050565b60006020820190508181036000830152612bdc81612ba0565b905091905056fea2646970667358221220acd5e88310b1da3a86735316df9bfc0d78c94e667f1b3c8a7f0ba4d6b1b98bd464736f6c63430008150033",
  "immutableReferences": {},
  "source": "// SPDX-License-Identifier: MIT\r\npragma solidity ^0.8.17;\r\n\r\n enum TaskStatus {\r\n    Created,\r\n    Accepted,\r\n    Submitted,\r\n    Approved,\r\n    Disputed,\r\n    Completed,\r\n    Cancelled\r\n}\r\n\r\nstruct Task {\r\n    uint256 id;\r\n    address payable client;\r\n    address payable freelancer;\r\n    string description;\r\n    uint256 amount;\r\n    uint256 deadline;\r\n    TaskStatus status;\r\n    string deliverableLink;\r\n    uint256 createdAt;\r\n}\r\n\r\ncontract TaskEscrow {\r\n\r\n    uint256 private taskIdCounter;\r\n    mapping(uint256 => Task) public tasks;\r\n    mapping(address => uint256[]) public clientTasks;\r\n    mapping(address => uint256[]) public freelancerTasks;\r\n\r\n    event TaskCreated(\r\n        uint256 taskId,\r\n        address client,\r\n        string description,\r\n        uint256 amount,\r\n        uint256 deadline\r\n    );\r\n    event TaskAccepted(uint256 taskId, address freelancer);\r\n    event TaskSubmitted(uint256 taskId, string deliverableLink);\r\n    event TaskApproved(uint256 taskId);\r\n    event TaskDisputed(uint256 taskId);\r\n    event TaskCompleted(uint256 taskId, address freelancer, uint256 amount);\r\n    event TaskCancelled(uint256 taskId);\r\n\r\n    modifier onlyClient(uint256 _taskId) {\r\n        require(\r\n            tasks[_taskId].client == msg.sender,\r\n            \"Only the client can call this function\"\r\n        );\r\n        _;\r\n    }\r\n\r\n    modifier onlyFreelancer(uint256 _taskId) {\r\n        require(\r\n            tasks[_taskId].freelancer == msg.sender,\r\n            \"Only the freelancer can call this function\"\r\n        );\r\n        _;\r\n    }\r\n\r\n    modifier taskExists(uint256 _taskId) {\r\n        require(_taskId < taskIdCounter, \"Task does not exist\");\r\n        _;\r\n    }\r\n\r\n    function createTask(\r\n        string memory _description,\r\n        uint256 _deadline\r\n    ) external payable returns (uint256) {\r\n        require(msg.value > 0, \"Task payment must be greater than 0\");\r\n        require(_deadline > block.timestamp, \"Deadline must be in the future\");\r\n\r\n        uint256 taskId = taskIdCounter++;\r\n        \r\n        tasks[taskId] = Task({\r\n            id: taskId,\r\n            client: payable(msg.sender),\r\n            freelancer: payable(address(0)),\r\n            description: _description,\r\n            amount: msg.value,\r\n            deadline: _deadline,\r\n            status: TaskStatus.Created,\r\n            deliverableLink: \"\",\r\n            createdAt: block.timestamp\r\n        });\r\n\r\n        clientTasks[msg.sender].push(taskId);\r\n\r\n        emit TaskCreated(\r\n            taskId,\r\n            msg.sender,\r\n            _description,\r\n            msg.value,\r\n            _deadline\r\n        );\r\n\r\n        return taskId;\r\n    }\r\n\r\n    function acceptTask(uint256 _taskId) external taskExists(_taskId) {\r\n        Task storage task = tasks[_taskId];\r\n        \r\n        require(\r\n            task.status == TaskStatus.Created,\r\n            \"Task is not available for acceptance\"\r\n        );\r\n        require(\r\n            task.client != msg.sender,\r\n            \"Client cannot accept their own task\"\r\n        );\r\n\r\n        task.freelancer = payable(msg.sender);\r\n        task.status = TaskStatus.Accepted;\r\n        \r\n        freelancerTasks[msg.sender].push(_taskId);\r\n\r\n        emit TaskAccepted(_taskId, msg.sender);\r\n    }\r\n\r\n    function submitTask(\r\n        uint256 _taskId,\r\n        string memory _deliverableLink\r\n    ) external taskExists(_taskId) onlyFreelancer(_taskId) {\r\n        Task storage task = tasks[_taskId];\r\n        \r\n        require(\r\n            task.status == TaskStatus.Accepted,\r\n            \"Task must be in accepted state\"\r\n        );\r\n        require(bytes(_deliverableLink).length > 0, \"Deliverable link cannot be empty\");\r\n\r\n        task.deliverableLink = _deliverableLink;\r\n        task.status = TaskStatus.Submitted;\r\n\r\n        emit TaskSubmitted(_taskId, _deliverableLink);\r\n    }\r\n\r\n    function approveTask(\r\n        uint256 _taskId\r\n    ) external taskExists(_taskId) onlyClient(_taskId) {\r\n        Task storage task = tasks[_taskId];\r\n        \r\n        require(\r\n            task.status == TaskStatus.Submitted,\r\n            \"Task must be in submitted state\"\r\n        );\r\n\r\n        task.status = TaskStatus.Approved;\r\n        \r\n        (bool success, ) = task.freelancer.call{value: task.amount}(\"\");\r\n        require(success, \"Payment transfer failed\");\r\n        \r\n        task.status = TaskStatus.Completed;\r\n\r\n        emit TaskApproved(_taskId);\r\n        emit TaskCompleted(_taskId, task.freelancer, task.amount);\r\n    }\r\n\r\n    function disputeTask(\r\n        uint256 _taskId\r\n    ) external taskExists(_taskId) onlyClient(_taskId) {\r\n        Task storage task = tasks[_taskId];\r\n        \r\n        require(\r\n            task.status == TaskStatus.Submitted,\r\n            \"Task must be in submitted state\"\r\n        );\r\n\r\n        task.status = TaskStatus.Disputed;\r\n\r\n        emit TaskDisputed(_taskId);\r\n    }\r\n\r\n    function cancelTask(\r\n        uint256 _taskId\r\n    ) external taskExists(_taskId) onlyClient(_taskId) {\r\n        Task storage task = tasks[_taskId];\r\n        \r\n        require(\r\n            task.status == TaskStatus.Created,\r\n            \"Only unaccepted tasks can be cancelled\"\r\n        );\r\n\r\n        task.status = TaskStatus.Cancelled;\r\n        \r\n        (bool success, ) = task.client.call{value: task.amount}(\"\");\r\n        require(success, \"Refund transfer failed\");\r\n\r\n        emit TaskCancelled(_taskId);\r\n    }\r\n\r\n    function getTask(uint256 _taskId) external view taskExists(_taskId) returns (Task memory) {\r\n        return tasks[_taskId];\r\n    }\r\n\r\n    function getClientTasks() external view returns (uint256[] memory) {\r\n        return clientTasks[msg.sender];\r\n    }\r\n\r\n    function getFreelancerTasks() external view returns (uint256[] memory) {\r\n        return freelancerTasks[msg.sender];\r\n    }\r\n\r\n    function getTaskCount() external view returns (uint256) {\r\n        return taskIdCounter;\r\n    }\r\n}",
  "sourcePath": "E:\\Projects\\Projects\\task-escrow\\contracts\\TaskEscrow.sol",
  "compiler": {
    "name": "solc",
    "version": "0.8.21+commit.d9974bed.Emscripten.clang"
  },
  "schemaVersion": "3.4.16",
  "updatedAt": "2025-02-26T07:34:18.638Z",
  "networkType": "ethereum",
  "devdoc": {
    "kind": "dev",
    "methods": {},
    "version": 1
  },
  "userdoc": {
    "kind": "user",
    "methods": {},
    "version": 1
  }
}